{
  "contractName": "lottery",
  "abi": [
    {
      "inputs": [],
      "name": "admin",
      "outputs": [
        {
          "internalType": "address",
          "name": "",
          "type": "address"
        }
      ],
      "stateMutability": "view",
      "type": "function",
      "constant": true
    },
    {
      "inputs": [
        {
          "internalType": "uint256",
          "name": "",
          "type": "uint256"
        }
      ],
      "name": "lastwinners",
      "outputs": [
        {
          "internalType": "address",
          "name": "",
          "type": "address"
        }
      ],
      "stateMutability": "view",
      "type": "function",
      "constant": true
    },
    {
      "inputs": [],
      "name": "maxTickets",
      "outputs": [
        {
          "internalType": "uint256",
          "name": "",
          "type": "uint256"
        }
      ],
      "stateMutability": "view",
      "type": "function",
      "constant": true
    },
    {
      "inputs": [],
      "name": "name",
      "outputs": [
        {
          "internalType": "string",
          "name": "",
          "type": "string"
        }
      ],
      "stateMutability": "view",
      "type": "function",
      "constant": true
    },
    {
      "inputs": [],
      "name": "remainingTickets",
      "outputs": [
        {
          "internalType": "uint256",
          "name": "",
          "type": "uint256"
        }
      ],
      "stateMutability": "view",
      "type": "function",
      "constant": true
    },
    {
      "inputs": [],
      "name": "symbol",
      "outputs": [
        {
          "internalType": "string",
          "name": "",
          "type": "string"
        }
      ],
      "stateMutability": "view",
      "type": "function",
      "constant": true
    },
    {
      "inputs": [],
      "name": "ticketCount",
      "outputs": [
        {
          "internalType": "uint256",
          "name": "",
          "type": "uint256"
        }
      ],
      "stateMutability": "view",
      "type": "function",
      "constant": true
    },
    {
      "inputs": [
        {
          "internalType": "uint256",
          "name": "",
          "type": "uint256"
        }
      ],
      "name": "tickets",
      "outputs": [
        {
          "internalType": "address payable",
          "name": "",
          "type": "address"
        }
      ],
      "stateMutability": "view",
      "type": "function",
      "constant": true
    },
    {
      "inputs": [],
      "name": "winner",
      "outputs": [
        {
          "internalType": "address payable",
          "name": "",
          "type": "address"
        }
      ],
      "stateMutability": "view",
      "type": "function",
      "constant": true
    },
    {
      "inputs": [
        {
          "internalType": "address",
          "name": "user",
          "type": "address"
        }
      ],
      "name": "AddressId",
      "outputs": [
        {
          "internalType": "uint256",
          "name": "",
          "type": "uint256"
        }
      ],
      "stateMutability": "pure",
      "type": "function",
      "constant": true
    },
    {
      "inputs": [
        {
          "internalType": "uint256",
          "name": "_unid",
          "type": "uint256"
        }
      ],
      "name": "Buy",
      "outputs": [],
      "stateMutability": "payable",
      "type": "function",
      "payable": true
    },
    {
      "inputs": [],
      "name": "getBalance",
      "outputs": [
        {
          "internalType": "uint256",
          "name": "",
          "type": "uint256"
        }
      ],
      "stateMutability": "view",
      "type": "function",
      "constant": true
    },
    {
      "inputs": [
        {
          "internalType": "uint256",
          "name": "_unid",
          "type": "uint256"
        }
      ],
      "name": "getBuyer",
      "outputs": [
        {
          "internalType": "address",
          "name": "_lotteryOwner",
          "type": "address"
        }
      ],
      "stateMutability": "view",
      "type": "function",
      "constant": true
    },
    {
      "inputs": [],
      "name": "pickWinner",
      "outputs": [],
      "stateMutability": "nonpayable",
      "type": "function"
    },
    {
      "inputs": [],
      "name": "getlastwinners",
      "outputs": [
        {
          "internalType": "address[]",
          "name": "",
          "type": "address[]"
        }
      ],
      "stateMutability": "view",
      "type": "function",
      "constant": true
    },
    {
      "inputs": [],
      "name": "getPlayers",
      "outputs": [
        {
          "internalType": "address payable[]",
          "name": "",
          "type": "address[]"
        }
      ],
      "stateMutability": "view",
      "type": "function",
      "constant": true
    }
  ],
  "bytecode": "0x60806040526040518060400160405280600e81526020017f4d6f6e74686c792042756d6265720000000000000000000000000000000000008152506001908051906020019062000051929190620000c5565b506040518060400160405280600381526020017f4d4f410000000000000000000000000000000000000000000000000000000000815250600290805190602001906200009f929190620000c5565b506103e86003556103e86004556000600555348015620000be57600080fd5b50620001da565b828054620000d390620001a4565b90600052602060002090601f016020900481019282620000f7576000855562000143565b82601f106200011257805160ff191683800117855562000143565b8280016001018555821562000143579182015b828111156200014257825182559160200191906001019062000125565b5b50905062000152919062000156565b5090565b5b808211156200017157600081600090555060010162000157565b5090565b7f4e487b7100000000000000000000000000000000000000000000000000000000600052602260045260246000fd5b60006002820490506001821680620001bd57607f821691505b60208210811415620001d457620001d362000175565b5b50919050565b61136f80620001ea6000396000f3fe6080604052600436106100f35760003560e01c80635d5048321161008a5780639b894703116100595780639b89470314610321578063cfbd900f1461034c578063dfbf53ae14610377578063f851a440146103a2576100f3565b80635d504832146102635780637429471a1461028e5780638b5b9ccc146102cb57806395d89b41146102f6576100f3565b80633e328218116100c65780633e328218146101b657806350b44712146101d25780635bf608b81461020f5780635d495aea1461024c576100f3565b806306fdde03146100f857806312065fe014610123578063143fed0c1461014e57806338403f5a1461018b575b600080fd5b34801561010457600080fd5b5061010d6103cd565b60405161011a9190610cab565b60405180910390f35b34801561012f57600080fd5b5061013861045b565b6040516101459190610ce6565b60405180910390f35b34801561015a57600080fd5b5061017560048036038101906101709190610d64565b610463565b6040516101829190610ce6565b60405180910390f35b34801561019757600080fd5b506101a06104a7565b6040516101ad9190610e4f565b60405180910390f35b6101d060048036038101906101cb9190610e9d565b610535565b005b3480156101de57600080fd5b506101f960048036038101906101f49190610e9d565b6106a4565b6040516102069190610eeb565b60405180910390f35b34801561021b57600080fd5b5061023660048036038101906102319190610e9d565b6106e3565b6040516102439190610f15565b60405180910390f35b34801561025857600080fd5b50610261610720565b005b34801561026f57600080fd5b5061027861097a565b6040516102859190610ce6565b60405180910390f35b34801561029a57600080fd5b506102b560048036038101906102b09190610e9d565b610980565b6040516102c29190610f15565b60405180910390f35b3480156102d757600080fd5b506102e06109bf565b6040516102ed9190610fee565b60405180910390f35b34801561030257600080fd5b5061030b610a4d565b6040516103189190610cab565b60405180910390f35b34801561032d57600080fd5b50610336610adb565b6040516103439190610ce6565b60405180910390f35b34801561035857600080fd5b50610361610ae1565b60405161036e9190610ce6565b60405180910390f35b34801561038357600080fd5b5061038c610ae7565b6040516103999190610eeb565b60405180910390f35b3480156103ae57600080fd5b506103b7610b0d565b6040516103c49190610f15565b60405180910390f35b600180546103da9061103f565b80601f01602080910402602001604051908101604052809291908181526020018280546104069061103f565b80156104535780601f1061042857610100808354040283529160200191610453565b820191906000526020600020905b81548152906001019060200180831161043657829003601f168201915b505050505081565b600047905090565b60006509184e72a0008260405160200161047d91906110b9565b6040516020818303038152906040528051906020012060001c6104a09190611103565b9050919050565b6060600880548060200260200160405190810160405280929190818152602001828054801561052b57602002820191906000526020600020905b8160009054906101000a900473ffffffffffffffffffffffffffffffffffffffff1673ffffffffffffffffffffffffffffffffffffffff16815260200190600101908083116104e1575b5050505050905090565b6000670de0b6b3a76400003461054b9190611163565b9050806004600082825461055f9190611194565b92505081905550336009600084815260200190815260200160002060006101000a81548173ffffffffffffffffffffffffffffffffffffffff021916908373ffffffffffffffffffffffffffffffffffffffff16021790555060008054906101000a900473ffffffffffffffffffffffffffffffffffffffff1673ffffffffffffffffffffffffffffffffffffffff163373ffffffffffffffffffffffffffffffffffffffff16141561061157600080fd5b67016345785d8a0000341161062557600080fd5b6007339080600181540180825580915050600190039060005260206000200160009091909190916101000a81548173ffffffffffffffffffffffffffffffffffffffff021916908373ffffffffffffffffffffffffffffffffffffffff1602179055506005600081548092919061069b906111c8565b91905055505050565b600781815481106106b457600080fd5b906000526020600020016000915054906101000a900473ffffffffffffffffffffffffffffffffffffffff1681565b60006009600083815260200190815260200160002060009054906101000a900473ffffffffffffffffffffffffffffffffffffffff169050919050565b60016007805490501015610769576040517f08c379a00000000000000000000000000000000000000000000000000000000081526004016107609061125d565b60405180910390fd5b60078080549050610778610b31565b6107829190611103565b815481106107935761079261127d565b5b9060005260206000200160009054906101000a900473ffffffffffffffffffffffffffffffffffffffff16600660006101000a81548173ffffffffffffffffffffffffffffffffffffffff021916908373ffffffffffffffffffffffffffffffffffffffff160217905550600660009054906101000a900473ffffffffffffffffffffffffffffffffffffffff1673ffffffffffffffffffffffffffffffffffffffff166108fc61084261045b565b9081150290604051600060405180830381858888f1935050505015801561086d573d6000803e3d6000fd5b506008600660009054906101000a900473ffffffffffffffffffffffffffffffffffffffff169080600181540180825580915050600190039060005260206000200160009091909190916101000a81548173ffffffffffffffffffffffffffffffffffffffff021916908373ffffffffffffffffffffffffffffffffffffffff160217905550600067ffffffffffffffff81111561090e5761090d6112ac565b5b60405190808252806020026020018201604052801561093c5781602001602082028036833780820191505090505b5060079080519060200190610952929190610b6b565b50600660006101000a81549073ffffffffffffffffffffffffffffffffffffffff0219169055565b60045481565b6008818154811061099057600080fd5b906000526020600020016000915054906101000a900473ffffffffffffffffffffffffffffffffffffffff1681565b60606007805480602002602001604051908101604052809291908181526020018280548015610a4357602002820191906000526020600020905b8160009054906101000a900473ffffffffffffffffffffffffffffffffffffffff1673ffffffffffffffffffffffffffffffffffffffff16815260200190600101908083116109f9575b5050505050905090565b60028054610a5a9061103f565b80601f0160208091040260200160405190810160405280929190818152602001828054610a869061103f565b8015610ad35780601f10610aa857610100808354040283529160200191610ad3565b820191906000526020600020905b815481529060010190602001808311610ab657829003601f168201915b505050505081565b60035481565b60055481565b600660009054906101000a900473ffffffffffffffffffffffffffffffffffffffff1681565b60008054906101000a900473ffffffffffffffffffffffffffffffffffffffff1681565b60004442600780549050604051602001610b4d939291906112fc565b6040516020818303038152906040528051906020012060001c905090565b828054828255906000526020600020908101928215610be4579160200282015b82811115610be35782518260006101000a81548173ffffffffffffffffffffffffffffffffffffffff021916908373ffffffffffffffffffffffffffffffffffffffff16021790555091602001919060010190610b8b565b5b509050610bf19190610bf5565b5090565b5b80821115610c0e576000816000905550600101610bf6565b5090565b600081519050919050565b600082825260208201905092915050565b60005b83811015610c4c578082015181840152602081019050610c31565b83811115610c5b576000848401525b50505050565b6000601f19601f8301169050919050565b6000610c7d82610c12565b610c878185610c1d565b9350610c97818560208601610c2e565b610ca081610c61565b840191505092915050565b60006020820190508181036000830152610cc58184610c72565b905092915050565b6000819050919050565b610ce081610ccd565b82525050565b6000602082019050610cfb6000830184610cd7565b92915050565b600080fd5b600073ffffffffffffffffffffffffffffffffffffffff82169050919050565b6000610d3182610d06565b9050919050565b610d4181610d26565b8114610d4c57600080fd5b50565b600081359050610d5e81610d38565b92915050565b600060208284031215610d7a57610d79610d01565b5b6000610d8884828501610d4f565b91505092915050565b600081519050919050565b600082825260208201905092915050565b6000819050602082019050919050565b610dc681610d26565b82525050565b6000610dd88383610dbd565b60208301905092915050565b6000602082019050919050565b6000610dfc82610d91565b610e068185610d9c565b9350610e1183610dad565b8060005b83811015610e42578151610e298882610dcc565b9750610e3483610de4565b925050600181019050610e15565b5085935050505092915050565b60006020820190508181036000830152610e698184610df1565b905092915050565b610e7a81610ccd565b8114610e8557600080fd5b50565b600081359050610e9781610e71565b92915050565b600060208284031215610eb357610eb2610d01565b5b6000610ec184828501610e88565b91505092915050565b6000610ed582610d06565b9050919050565b610ee581610eca565b82525050565b6000602082019050610f006000830184610edc565b92915050565b610f0f81610d26565b82525050565b6000602082019050610f2a6000830184610f06565b92915050565b600081519050919050565b600082825260208201905092915050565b6000819050602082019050919050565b610f6581610eca565b82525050565b6000610f778383610f5c565b60208301905092915050565b6000602082019050919050565b6000610f9b82610f30565b610fa58185610f3b565b9350610fb083610f4c565b8060005b83811015610fe1578151610fc88882610f6b565b9750610fd383610f83565b925050600181019050610fb4565b5085935050505092915050565b600060208201905081810360008301526110088184610f90565b905092915050565b7f4e487b7100000000000000000000000000000000000000000000000000000000600052602260045260246000fd5b6000600282049050600182168061105757607f821691505b6020821081141561106b5761106a611010565b5b50919050565b60008160601b9050919050565b600061108982611071565b9050919050565b600061109b8261107e565b9050919050565b6110b36110ae82610d26565b611090565b82525050565b60006110c582846110a2565b60148201915081905092915050565b7f4e487b7100000000000000000000000000000000000000000000000000000000600052601260045260246000fd5b600061110e82610ccd565b915061111983610ccd565b925082611129576111286110d4565b5b828206905092915050565b7f4e487b7100000000000000000000000000000000000000000000000000000000600052601160045260246000fd5b600061116e82610ccd565b915061117983610ccd565b925082611189576111886110d4565b5b828204905092915050565b600061119f82610ccd565b91506111aa83610ccd565b9250828210156111bd576111bc611134565b5b828203905092915050565b60006111d382610ccd565b91507fffffffffffffffffffffffffffffffffffffffffffffffffffffffffffffffff82141561120657611205611134565b5b600182019050919050565b7f4e6f7420656e6f756768207469636b6574730000000000000000000000000000600082015250565b6000611247601283610c1d565b915061125282611211565b602082019050919050565b600060208201905081810360008301526112768161123a565b9050919050565b7f4e487b7100000000000000000000000000000000000000000000000000000000600052603260045260246000fd5b7f4e487b7100000000000000000000000000000000000000000000000000000000600052604160045260246000fd5b6000819050919050565b6112f66112f182610ccd565b6112db565b82525050565b600061130882866112e5565b60208201915061131882856112e5565b60208201915061132882846112e5565b60208201915081905094935050505056fea2646970667358221220e56fb64df4896fc7a8168644d345f488dad257b09278fe749b768ba0e745452664736f6c634300080a0033",
  "immutableReferences": {},
  "source": "// SPDX-License-Identifier: GPL-3.0 \r\npragma solidity >=0.5.0 <0.9.0;\r\n\r\ncontract lottery  {\r\n\r\n      address   public admin;\r\n\r\n      string  public name=\"Monthly Bumber\";\r\n      string  public symbol=\"MOA\";\r\n      uint256 public maxTickets=1000;\r\n      uint256 public remainingTickets = 1000;\r\n      uint    public ticketCount =0;\r\n \taddress payable public winner;\r\n\r\n   \r\n    address payable[] public tickets;\r\n    address[] public lastwinners;\r\n     mapping(uint => address)uniqueid;\r\n\r\n    modifier onlyAdmin(){\r\n    admin=msg.sender;\r\n            _;\r\n        }\r\n\r\n     function AddressId(address user)public pure returns(uint){\r\n        return uint(keccak256(abi.encodePacked(user)))%10000000000000;\r\n        \r\n    }\r\n\r\n    function Buy(uint _unid)external payable{\r\n        // require(msg.value ==1000000000000000000);\r\n        uint256 val= msg.value / 1000000000000000000;\r\n        // require(remainingTickets - val <= remainingTickets);\r\n        remainingTickets -= val;\r\n        uniqueid[_unid]=msg.sender;\r\n        \r\n        require(msg.sender != admin);\r\n\r\n        require(msg.value > 0.1 ether);\r\n        tickets.push(payable(msg.sender));\r\n        \r\n        ticketCount++;\r\n\r\n    }\r\n    function getBalance()public view returns(uint)\r\n    {\r\n        //return the contract balance\r\n        return address(this).balance;\r\n    }\r\n\r\n    \r\n     function getBuyer(uint _unid) public view returns(address _lotteryOwner){\r\n        _lotteryOwner = uniqueid[_unid];\r\n    }\r\n  \r\n\r\n\r\n   function random()internal view returns(uint){\r\n        return uint(keccak256(abi.encodePacked(block.difficulty,block.timestamp,tickets.length)));\r\n\r\n    }\r\n\r\n    function pickWinner() public{\r\n        // require(admin == msg.sender,\"you have no authority\");\r\n        require(tickets.length >= 1,\"Not enough tickets\");\r\n        // address payable winner;\r\n\r\n        winner=tickets[random()% tickets.length];\r\n        winner.transfer(getBalance());\r\n        lastwinners.push(winner);\r\n\r\n        tickets= new address payable[](0);\r\n        delete winner;\r\n    }\r\n\r\n function getlastwinners()public view returns(address[] memory)\r\n    {\r\n        return lastwinners;\r\n    }\r\n\r\n     \r\n    function getPlayers()public view returns(address payable[] memory)\r\n    {\r\n        return tickets;\r\n    }\r\n\r\n\r\n\r\n}",
  "sourcePath": "D:\\Blockchain\\lotery\\lottery_final\\contracts\\lottery.sol",
  "compiler": {
    "name": "solc",
    "version": "0.8.10+commit.fc410830.Emscripten.clang"
  },
  "schemaVersion": "3.4.4",
  "updatedAt": "2022-01-04T12:39:04.099Z",
  "networkType": "ethereum",
  "devdoc": {
    "kind": "dev",
    "methods": {},
    "version": 1
  },
  "userdoc": {
    "kind": "user",
    "methods": {},
    "version": 1
  }
}